{
  "contractName": "SupplyChainProtocol",
  "abi": [
    {
      "anonymous": false,
      "inputs": [
        {
          "indexed": true,
          "internalType": "address",
          "name": "owner",
          "type": "address"
        },
        {
          "indexed": true,
          "internalType": "address",
          "name": "approved",
          "type": "address"
        },
        {
          "indexed": true,
          "internalType": "uint256",
          "name": "tokenId",
          "type": "uint256"
        }
      ],
      "name": "Approval",
      "type": "event"
    },
    {
      "anonymous": false,
      "inputs": [
        {
          "indexed": true,
          "internalType": "address",
          "name": "owner",
          "type": "address"
        },
        {
          "indexed": true,
          "internalType": "address",
          "name": "operator",
          "type": "address"
        },
        {
          "indexed": false,
          "internalType": "bool",
          "name": "approved",
          "type": "bool"
        }
      ],
      "name": "ApprovalForAll",
      "type": "event"
    },
    {
      "anonymous": false,
      "inputs": [
        {
          "indexed": false,
          "internalType": "address",
          "name": "owner",
          "type": "address"
        },
        {
          "indexed": false,
          "internalType": "uint256",
          "name": "OrderVolumeId",
          "type": "uint256"
        },
        {
          "indexed": false,
          "internalType": "uint256",
          "name": "cost",
          "type": "uint256"
        },
        {
          "indexed": false,
          "internalType": "string",
          "name": "productName",
          "type": "string"
        },
        {
          "indexed": false,
          "internalType": "string",
          "name": "description",
          "type": "string"
        },
        {
          "indexed": false,
          "internalType": "uint256",
          "name": "leadTime_in_days",
          "type": "uint256"
        }
      ],
      "name": "OrderMade",
      "type": "event"
    },
    {
      "anonymous": false,
      "inputs": [
        {
          "indexed": true,
          "internalType": "address",
          "name": "from",
          "type": "address"
        },
        {
          "indexed": true,
          "internalType": "address",
          "name": "to",
          "type": "address"
        },
        {
          "indexed": true,
          "internalType": "uint256",
          "name": "tokenId",
          "type": "uint256"
        }
      ],
      "name": "Transfer",
      "type": "event"
    },
    {
      "inputs": [],
      "name": "name",
      "outputs": [
        {
          "internalType": "string",
          "name": "",
          "type": "string"
        }
      ],
      "stateMutability": "view",
      "type": "function",
      "constant": true
    },
    {
      "inputs": [],
      "name": "orderId",
      "outputs": [
        {
          "internalType": "uint256",
          "name": "",
          "type": "uint256"
        }
      ],
      "stateMutability": "view",
      "type": "function",
      "constant": true
    },
    {
      "inputs": [],
      "name": "symbol",
      "outputs": [
        {
          "internalType": "string",
          "name": "",
          "type": "string"
        }
      ],
      "stateMutability": "view",
      "type": "function",
      "constant": true
    },
    {
      "inputs": [
        {
          "internalType": "uint256",
          "name": "_ID",
          "type": "uint256"
        },
        {
          "internalType": "uint64",
          "name": "_cost",
          "type": "uint64"
        },
        {
          "internalType": "string",
          "name": "_productName",
          "type": "string"
        },
        {
          "internalType": "string",
          "name": "_description",
          "type": "string"
        },
        {
          "internalType": "uint64",
          "name": "_leadTime_in_days",
          "type": "uint64"
        },
        {
          "internalType": "address",
          "name": "_owner",
          "type": "address"
        }
      ],
      "name": "_createOrder",
      "outputs": [
        {
          "internalType": "uint256",
          "name": "",
          "type": "uint256"
        }
      ],
      "stateMutability": "nonpayable",
      "type": "function"
    },
    {
      "inputs": [
        {
          "internalType": "uint256",
          "name": "_id",
          "type": "uint256"
        }
      ],
      "name": "getOrder",
      "outputs": [
        {
          "internalType": "uint256",
          "name": "id",
          "type": "uint256"
        },
        {
          "internalType": "uint256",
          "name": "cost",
          "type": "uint256"
        },
        {
          "internalType": "string",
          "name": "productName",
          "type": "string"
        },
        {
          "internalType": "string",
          "name": "description",
          "type": "string"
        },
        {
          "internalType": "uint256",
          "name": "leadTime_in_days",
          "type": "uint256"
        }
      ],
      "stateMutability": "view",
      "type": "function",
      "constant": true
    },
    {
      "inputs": [],
      "name": "getOrderId",
      "outputs": [
        {
          "internalType": "uint256",
          "name": "",
          "type": "uint256"
        }
      ],
      "stateMutability": "view",
      "type": "function",
      "constant": true
    },
    {
      "inputs": [],
      "name": "totalSupply",
      "outputs": [
        {
          "internalType": "uint256",
          "name": "total",
          "type": "uint256"
        }
      ],
      "stateMutability": "view",
      "type": "function",
      "constant": true
    },
    {
      "inputs": [
        {
          "internalType": "address",
          "name": "owner",
          "type": "address"
        }
      ],
      "name": "balanceOf",
      "outputs": [
        {
          "internalType": "uint256",
          "name": "balance",
          "type": "uint256"
        }
      ],
      "stateMutability": "view",
      "type": "function",
      "constant": true
    },
    {
      "inputs": [
        {
          "internalType": "uint256",
          "name": "tokenId",
          "type": "uint256"
        }
      ],
      "name": "ownerOf",
      "outputs": [
        {
          "internalType": "address",
          "name": "owner",
          "type": "address"
        }
      ],
      "stateMutability": "view",
      "type": "function",
      "constant": true
    },
    {
      "inputs": [
        {
          "internalType": "address",
          "name": "to",
          "type": "address"
        },
        {
          "internalType": "uint256",
          "name": "tokenId",
          "type": "uint256"
        }
      ],
      "name": "transfer",
      "outputs": [],
      "stateMutability": "nonpayable",
      "type": "function"
    },
    {
      "inputs": [
        {
          "internalType": "address",
          "name": "_approved",
          "type": "address"
        },
        {
          "internalType": "uint256",
          "name": "_tokenId",
          "type": "uint256"
        }
      ],
      "name": "approve",
      "outputs": [],
      "stateMutability": "payable",
      "type": "function",
      "payable": true
    },
    {
      "inputs": [
        {
          "internalType": "address",
          "name": "operator",
          "type": "address"
        },
        {
          "internalType": "bool",
          "name": "_approved",
          "type": "bool"
        }
      ],
      "name": "setApprovalForAll",
      "outputs": [],
      "stateMutability": "nonpayable",
      "type": "function"
    },
    {
      "inputs": [
        {
          "internalType": "uint256",
          "name": "_tokenId",
          "type": "uint256"
        }
      ],
      "name": "getApproved",
      "outputs": [
        {
          "internalType": "address",
          "name": "",
          "type": "address"
        }
      ],
      "stateMutability": "view",
      "type": "function",
      "constant": true
    },
    {
      "inputs": [
        {
          "internalType": "address",
          "name": "_owner",
          "type": "address"
        },
        {
          "internalType": "address",
          "name": "_operator",
          "type": "address"
        }
      ],
      "name": "isApprovedForAll",
      "outputs": [
        {
          "internalType": "bool",
          "name": "",
          "type": "bool"
        }
      ],
      "stateMutability": "view",
      "type": "function",
      "constant": true
    },
    {
      "inputs": [
        {
          "internalType": "address",
          "name": "_from",
          "type": "address"
        },
        {
          "internalType": "address",
          "name": "_to",
          "type": "address"
        },
        {
          "internalType": "uint256",
          "name": "_tokenId",
          "type": "uint256"
        }
      ],
      "name": "transferFrom",
      "outputs": [],
      "stateMutability": "payable",
      "type": "function",
      "payable": true
    },
    {
      "inputs": [
        {
          "internalType": "address",
          "name": "_from",
          "type": "address"
        },
        {
          "internalType": "address",
          "name": "_to",
          "type": "address"
        },
        {
          "internalType": "uint256",
          "name": "_tokenId",
          "type": "uint256"
        }
      ],
      "name": "safeTransferFrom",
      "outputs": [],
      "stateMutability": "payable",
      "type": "function",
      "payable": true
    },
    {
      "inputs": [
        {
          "internalType": "address",
          "name": "_from",
          "type": "address"
        },
        {
          "internalType": "address",
          "name": "_to",
          "type": "address"
        },
        {
          "internalType": "uint256",
          "name": "_tokenId",
          "type": "uint256"
        },
        {
          "internalType": "bytes",
          "name": "data",
          "type": "bytes"
        }
      ],
      "name": "safeTransferFrom",
      "outputs": [],
      "stateMutability": "payable",
      "type": "function",
      "payable": true
    }
  ],
  "bytecode": "0x608060405234801561001057600080fd5b506121da806100206000396000f3fe6080604052600436106100fe5760003560e01c806370a0823111610095578063a9059cbb11610064578063a9059cbb1461030e578063b88d4fde14610337578063d09ef24114610353578063e2ed865314610394578063e985e9c5146103d1576100fe565b806370a082311461025257806395d89b411461028f578063a22cb465146102ba578063a8496426146102e3576100fe565b806318160ddd116100d157806318160ddd146101b257806323b872dd146101dd57806342842e0e146101f95780636352211e14610215576100fe565b806306fdde0314610103578063081812fc1461012e578063095ea7b31461016b578063163de5e514610187575b600080fd5b34801561010f57600080fd5b5061011861040e565b6040516101259190611c55565b60405180910390f35b34801561013a57600080fd5b5061015560048036038101906101509190611955565b610447565b6040516101629190611b3b565b60405180910390f35b610185600480360381019061018091906118bb565b610495565b005b34801561019357600080fd5b5061019c61057e565b6040516101a99190611cb7565b60405180910390f35b3480156101be57600080fd5b506101c7610584565b6040516101d49190611cb7565b60405180910390f35b6101f760048036038101906101f291906117a5565b610591565b005b610213600480360381019061020e91906117a5565b6107b8565b005b34801561022157600080fd5b5061023c60048036038101906102379190611955565b6107d8565b6040516102499190611b3b565b60405180910390f35b34801561025e57600080fd5b5061027960048036038101906102749190611738565b610815565b6040516102869190611cb7565b60405180910390f35b34801561029b57600080fd5b506102a461085e565b6040516102b19190611c55565b60405180910390f35b3480156102c657600080fd5b506102e160048036038101906102dc919061187b565b610897565b005b3480156102ef57600080fd5b506102f861097d565b6040516103059190611cb7565b60405180910390f35b34801561031a57600080fd5b50610335600480360381019061033091906118bb565b61099a565b005b610351600480360381019061034c91906117f8565b610a2f565b005b34801561035f57600080fd5b5061037a60048036038101906103759190611955565b610a56565b60405161038b959493929190611cd2565b60405180910390f35b3480156103a057600080fd5b506103bb60048036038101906103b69190611982565b610c87565b6040516103c89190611cb7565b60405180910390f35b3480156103dd57600080fd5b506103f860048036038101906103f39190611765565b610e2b565b6040516104059190611c3a565b60405180910390f35b6040518060400160405280601381526020017f537570706c79436861696e50726f746f636f6c0000000000000000000000000081525081565b6000600180549050821061045a57600080fd5b6005600083815260200190815260200160002060009054906101000a900473ffffffffffffffffffffffffffffffffffffffff169050919050565b600073ffffffffffffffffffffffffffffffffffffffff168273ffffffffffffffffffffffffffffffffffffffff1614156104cf57600080fd5b6104d93382610ebf565b6104e257600080fd5b6104ec8282610f2b565b808273ffffffffffffffffffffffffffffffffffffffff166004600084815260200190815260200160002060009054906101000a900473ffffffffffffffffffffffffffffffffffffffff1673ffffffffffffffffffffffffffffffffffffffff167f8c5be1e5ebec7d5bd14f71427d1e84f3dd0314c0f7b2291e5b200ac8c7c3b92560405160405180910390a45050565b60005481565b6000600180549050905090565b600073ffffffffffffffffffffffffffffffffffffffff168273ffffffffffffffffffffffffffffffffffffffff1614156105cb57600080fd5b60006004600083815260200190815260200160002060009054906101000a900473ffffffffffffffffffffffffffffffffffffffff1690508073ffffffffffffffffffffffffffffffffffffffff168373ffffffffffffffffffffffffffffffffffffffff16141561063c57600080fd5b8373ffffffffffffffffffffffffffffffffffffffff163373ffffffffffffffffffffffffffffffffffffffff16148061067c575061067b3383610f81565b5b8061070e57503073ffffffffffffffffffffffffffffffffffffffff1663e985e9c582336040518363ffffffff1660e01b81526004016106bd929190611b56565b60206040518083038186803b1580156106d557600080fd5b505afa1580156106e9573d6000803e3d6000fd5b505050506040513d601f19601f8201168201806040525081019061070d91906118fb565b5b61071757600080fd5b6107218483610ebf565b610760576040517f08c379a000000000000000000000000000000000000000000000000000000000815260040161075790611c97565b60405180910390fd5b60018054905082106107a7576040517f08c379a000000000000000000000000000000000000000000000000000000000815260040161079e90611c77565b60405180910390fd5b6107b2848484610fed565b50505050565b6107d383838360405180602001604052806000815250610a2f565b505050565b60006004600083815260200190815260200160002060009054906101000a900473ffffffffffffffffffffffffffffffffffffffff169050919050565b6000600360008373ffffffffffffffffffffffffffffffffffffffff1673ffffffffffffffffffffffffffffffffffffffff168152602001908152602001600020549050919050565b6040518060400160405280600381526020017f534350000000000000000000000000000000000000000000000000000000000081525081565b600073ffffffffffffffffffffffffffffffffffffffff168273ffffffffffffffffffffffffffffffffffffffff1614156108d157600080fd5b3373ffffffffffffffffffffffffffffffffffffffff168273ffffffffffffffffffffffffffffffffffffffff16141561090a57600080fd5b6109148282611198565b8173ffffffffffffffffffffffffffffffffffffffff163373ffffffffffffffffffffffffffffffffffffffff167f17307eab39ab6107e8899845ad3d59bd9653f200f220920489ca2b5937696c31836040516109719190611c3a565b60405180910390a35050565b600080600180805490506109919190611df2565b90508091505090565b600073ffffffffffffffffffffffffffffffffffffffff168273ffffffffffffffffffffffffffffffffffffffff1614156109d457600080fd5b3073ffffffffffffffffffffffffffffffffffffffff168273ffffffffffffffffffffffffffffffffffffffff161415610a0d57600080fd5b610a173382610ebf565b610a2057600080fd5b610a2b338383610fed565b5050565b610a3b33858585611230565b610a4457600080fd5b610a50848484846113de565b50505050565b600080606080600060018681548110610a7257610a71612036565b5b90600052602060002090600502016000015460018781548110610a9857610a97612036565b5b906000526020600020906005020160010160009054906101000a900467ffffffffffffffff1660018881548110610ad257610ad1612036565b5b906000526020600020906005020160020160018981548110610af757610af6612036565b5b906000526020600020906005020160030160018a81548110610b1c57610b1b612036565b5b906000526020600020906005020160040160009054906101000a900467ffffffffffffffff168367ffffffffffffffff169350828054610b5b90611f2c565b80601f0160208091040260200160405190810160405280929190818152602001828054610b8790611f2c565b8015610bd45780601f10610ba957610100808354040283529160200191610bd4565b820191906000526020600020905b815481529060010190602001808311610bb757829003601f168201915b50505050509250818054610be790611f2c565b80601f0160208091040260200160405190810160405280929190818152602001828054610c1390611f2c565b8015610c605780601f10610c3557610100808354040283529160200191610c60565b820191906000526020600020905b815481529060010190602001808311610c4357829003601f168201915b505050505091508067ffffffffffffffff1690509450945094509450945091939590929450565b6000806040518060a001604052808981526020018863ffffffff1667ffffffffffffffff1681526020018781526020018681526020018563ffffffff1667ffffffffffffffff16815250905060018190806001815401808255809150506001900390600052602060002090600502016000909190919091506000820151816000015560208201518160010160006101000a81548167ffffffffffffffff021916908367ffffffffffffffff1602179055506040820151816002019080519060200190610d54929190611537565b506060820151816003019080519060200190610d71929190611537565b5060808201518160040160006101000a81548167ffffffffffffffff021916908367ffffffffffffffff1602179055505050600060018080549050610db69190611df2565b90507fd9976dc511c4a16ce9b8aaa455aa5d08b3c55fec82a047aa72f71a0ffe2f659984828a8a8a8a604051610df196959493929190611bcb565b60405180910390a1610e0560008583610fed565b600080815480929190610e1790611f8f565b919050555080925050509695505050505050565b6000600660008473ffffffffffffffffffffffffffffffffffffffff1673ffffffffffffffffffffffffffffffffffffffff16815260200190815260200160002060008373ffffffffffffffffffffffffffffffffffffffff1673ffffffffffffffffffffffffffffffffffffffff16815260200190815260200160002060009054906101000a900460ff16905092915050565b60008273ffffffffffffffffffffffffffffffffffffffff166004600084815260200190815260200160002060009054906101000a900473ffffffffffffffffffffffffffffffffffffffff1673ffffffffffffffffffffffffffffffffffffffff1614905092915050565b816005600083815260200190815260200160002060006101000a81548173ffffffffffffffffffffffffffffffffffffffff021916908373ffffffffffffffffffffffffffffffffffffffff1602179055505050565b60008273ffffffffffffffffffffffffffffffffffffffff166005600084815260200190815260200160002060009054906101000a900473ffffffffffffffffffffffffffffffffffffffff1673ffffffffffffffffffffffffffffffffffffffff1614905092915050565b600260008373ffffffffffffffffffffffffffffffffffffffff1673ffffffffffffffffffffffffffffffffffffffff168152602001908152602001600020600081548092919061103d90611f8f565b91905055506004600082815260200190815260200160002060009054906101000a900473ffffffffffffffffffffffffffffffffffffffff169150600073ffffffffffffffffffffffffffffffffffffffff168373ffffffffffffffffffffffffffffffffffffffff161461113857600260008473ffffffffffffffffffffffffffffffffffffffff1673ffffffffffffffffffffffffffffffffffffffff16815260200190815260200160002060008154809291906110fc90611f02565b91905055506005600082815260200190815260200160002060006101000a81549073ffffffffffffffffffffffffffffffffffffffff02191690555b808273ffffffffffffffffffffffffffffffffffffffff168473ffffffffffffffffffffffffffffffffffffffff167fddf252ad1be2c89b69c2b068fc378daa952ba7f163c4a11628f55a4df523b3ef60405160405180910390a4505050565b80600660003373ffffffffffffffffffffffffffffffffffffffff1673ffffffffffffffffffffffffffffffffffffffff16815260200190815260200160002060008473ffffffffffffffffffffffffffffffffffffffff1673ffffffffffffffffffffffffffffffffffffffff16815260200190815260200160002060006101000a81548160ff0219169083151502179055505050565b6000600180549050821061124357600080fd5b600073ffffffffffffffffffffffffffffffffffffffff168373ffffffffffffffffffffffffffffffffffffffff16141561127d57600080fd5b60006004600084815260200190815260200160002060009054906101000a900473ffffffffffffffffffffffffffffffffffffffff1690508073ffffffffffffffffffffffffffffffffffffffff168473ffffffffffffffffffffffffffffffffffffffff1614156112ee57600080fd5b6112f88584610ebf565b61130157600080fd5b8473ffffffffffffffffffffffffffffffffffffffff168673ffffffffffffffffffffffffffffffffffffffff16148061134157506113408684610f81565b5b806113d357503073ffffffffffffffffffffffffffffffffffffffff1663e985e9c582886040518363ffffffff1660e01b8152600401611382929190611b56565b60206040518083038186803b15801561139a57600080fd5b505afa1580156113ae573d6000803e3d6000fd5b505050506040513d601f19601f820116820180604052508101906113d291906118fb565b5b915050949350505050565b6113e9848484610fed565b6113f584848484611404565b6113fe57600080fd5b50505050565b600061140f8461151e565b61141c5760019050611516565b60008473ffffffffffffffffffffffffffffffffffffffff1663150b7a02338887876040518563ffffffff1660e01b815260040161145d9493929190611b7f565b602060405180830381600087803b15801561147757600080fd5b505af115801561148b573d6000803e3d6000fd5b505050506040513d601f19601f820116820180604052508101906114af9190611928565b90507f150b7a023d4804d13e8c85fb27262cb750cf6ba9f9dd3bb30d90f482ceeb4b1f7bffffffffffffffffffffffffffffffffffffffffffffffffffffffff1916817bffffffffffffffffffffffffffffffffffffffffffffffffffffffff1916149150505b949350505050565b600080823b905060008163ffffffff1611915050919050565b82805461154390611f2c565b90600052602060002090601f01602090048101928261156557600085556115ac565b82601f1061157e57805160ff19168380011785556115ac565b828001600101855582156115ac579182015b828111156115ab578251825591602001919060010190611590565b5b5090506115b991906115bd565b5090565b5b808211156115d65760008160009055506001016115be565b5090565b60006115ed6115e884611d58565b611d33565b90508281526020810184848401111561160957611608612099565b5b611614848285611ec0565b509392505050565b600061162f61162a84611d89565b611d33565b90508281526020810184848401111561164b5761164a612099565b5b611656848285611ec0565b509392505050565b60008135905061166d81612131565b92915050565b60008135905061168281612148565b92915050565b60008151905061169781612148565b92915050565b6000815190506116ac8161215f565b92915050565b600082601f8301126116c7576116c6612094565b5b81356116d78482602086016115da565b91505092915050565b600082601f8301126116f5576116f4612094565b5b813561170584826020860161161c565b91505092915050565b60008135905061171d81612176565b92915050565b6000813590506117328161218d565b92915050565b60006020828403121561174e5761174d6120a3565b5b600061175c8482850161165e565b91505092915050565b6000806040838503121561177c5761177b6120a3565b5b600061178a8582860161165e565b925050602061179b8582860161165e565b9150509250929050565b6000806000606084860312156117be576117bd6120a3565b5b60006117cc8682870161165e565b93505060206117dd8682870161165e565b92505060406117ee8682870161170e565b9150509250925092565b60008060008060808587031215611812576118116120a3565b5b60006118208782880161165e565b94505060206118318782880161165e565b93505060406118428782880161170e565b925050606085013567ffffffffffffffff8111156118635761186261209e565b5b61186f878288016116b2565b91505092959194509250565b60008060408385031215611892576118916120a3565b5b60006118a08582860161165e565b92505060206118b185828601611673565b9150509250929050565b600080604083850312156118d2576118d16120a3565b5b60006118e08582860161165e565b92505060206118f18582860161170e565b9150509250929050565b600060208284031215611911576119106120a3565b5b600061191f84828501611688565b91505092915050565b60006020828403121561193e5761193d6120a3565b5b600061194c8482850161169d565b91505092915050565b60006020828403121561196b5761196a6120a3565b5b60006119798482850161170e565b91505092915050565b60008060008060008060c0878903121561199f5761199e6120a3565b5b60006119ad89828a0161170e565b96505060206119be89828a01611723565b955050604087013567ffffffffffffffff8111156119df576119de61209e565b5b6119eb89828a016116e0565b945050606087013567ffffffffffffffff811115611a0c57611a0b61209e565b5b611a1889828a016116e0565b9350506080611a2989828a01611723565b92505060a0611a3a89828a0161165e565b9150509295509295509295565b611a5081611e26565b82525050565b611a5f81611e38565b82525050565b6000611a7082611dba565b611a7a8185611dd0565b9350611a8a818560208601611ecf565b611a93816120a8565b840191505092915050565b6000611aa982611dc5565b611ab38185611de1565b9350611ac3818560208601611ecf565b611acc816120a8565b840191505092915050565b6000611ae4601583611de1565b9150611aef826120b9565b602082019050919050565b6000611b07602283611de1565b9150611b12826120e2565b604082019050919050565b611b2681611e90565b82525050565b611b3581611eae565b82525050565b6000602082019050611b506000830184611a47565b92915050565b6000604082019050611b6b6000830185611a47565b611b786020830184611a47565b9392505050565b6000608082019050611b946000830187611a47565b611ba16020830186611a47565b611bae6040830185611b1d565b8181036060830152611bc08184611a65565b905095945050505050565b600060c082019050611be06000830189611a47565b611bed6020830188611b1d565b611bfa6040830187611b2c565b8181036060830152611c0c8186611a9e565b90508181036080830152611c208185611a9e565b9050611c2f60a0830184611b2c565b979650505050505050565b6000602082019050611c4f6000830184611a56565b92915050565b60006020820190508181036000830152611c6f8184611a9e565b905092915050565b60006020820190508181036000830152611c9081611ad7565b9050919050565b60006020820190508181036000830152611cb081611afa565b9050919050565b6000602082019050611ccc6000830184611b1d565b92915050565b600060a082019050611ce76000830188611b1d565b611cf46020830187611b1d565b8181036040830152611d068186611a9e565b90508181036060830152611d1a8185611a9e565b9050611d296080830184611b1d565b9695505050505050565b6000611d3d611d4e565b9050611d498282611f5e565b919050565b6000604051905090565b600067ffffffffffffffff821115611d7357611d72612065565b5b611d7c826120a8565b9050602081019050919050565b600067ffffffffffffffff821115611da457611da3612065565b5b611dad826120a8565b9050602081019050919050565b600081519050919050565b600081519050919050565b600082825260208201905092915050565b600082825260208201905092915050565b6000611dfd82611e90565b9150611e0883611e90565b925082821015611e1b57611e1a611fd8565b5b828203905092915050565b6000611e3182611e70565b9050919050565b60008115159050919050565b60007fffffffff0000000000000000000000000000000000000000000000000000000082169050919050565b600073ffffffffffffffffffffffffffffffffffffffff82169050919050565b6000819050919050565b600067ffffffffffffffff82169050919050565b6000611eb982611e9a565b9050919050565b82818337600083830152505050565b60005b83811015611eed578082015181840152602081019050611ed2565b83811115611efc576000848401525b50505050565b6000611f0d82611e90565b91506000821415611f2157611f20611fd8565b5b600182039050919050565b60006002820490506001821680611f4457607f821691505b60208210811415611f5857611f57612007565b5b50919050565b611f67826120a8565b810181811067ffffffffffffffff82111715611f8657611f85612065565b5b80604052505050565b6000611f9a82611e90565b91507fffffffffffffffffffffffffffffffffffffffffffffffffffffffffffffffff821415611fcd57611fcc611fd8565b5b600182019050919050565b7f4e487b7100000000000000000000000000000000000000000000000000000000600052601160045260246000fd5b7f4e487b7100000000000000000000000000000000000000000000000000000000600052602260045260246000fd5b7f4e487b7100000000000000000000000000000000000000000000000000000000600052603260045260246000fd5b7f4e487b7100000000000000000000000000000000000000000000000000000000600052604160045260246000fd5b600080fd5b600080fd5b600080fd5b600080fd5b6000601f19601f8301169050919050565b7f546f6b656e204944206973206e6f742076616c69640000000000000000000000600082015250565b7f46726f6d206973206e6f7420746865206f776e6572206f662074686520746f6b60008201527f656e000000000000000000000000000000000000000000000000000000000000602082015250565b61213a81611e26565b811461214557600080fd5b50565b61215181611e38565b811461215c57600080fd5b50565b61216881611e44565b811461217357600080fd5b50565b61217f81611e90565b811461218a57600080fd5b50565b61219681611e9a565b81146121a157600080fd5b5056fea26469706673582212202bf7656640d311a2c4404902572912e2d9aa8b7410315b60eb7f94d966e5a98a64736f6c63430008070033",
  "immutableReferences": {},
  "source": "// SPDX-License-Identifier: MIT\r\npragma solidity ^0.8.4;\r\npragma experimental ABIEncoderV2;\r\n import \"./IERC721.sol\";\r\n import \"./IERC721Receiver.sol\";\r\n \r\n\r\n\r\n contract SupplyChainProtocol is IERC721 {\r\n  \r\n    string public override constant name = \"SupplyChainProtocol\";\r\n    string public override constant symbol= \"SCP\";\r\n    bytes4 internal constant MAGIC_ERC721_RECEIVED = bytes4(keccak256(\"onERC721Received(address,address,uint256,bytes)\"));\r\n   uint256 public orderId;\r\n    \r\n    /**\r\n     *  bytes4(keccak256('balanceOf(address)')) == 0x70a08231\r\n     *  bytes4(keccak256('ownerOf(uint256)')) == 0x6352211e\r\n     *  bytes4(keccak256('approve(address, uint256)')) == 0x095ea7b3\r\n     *  bytes4(keccak256('getApproved(uint256)')) == 0x081812fc\r\n     *  bytes4(keccak256('setApprovalForAll(address, bool)')) == 0xa22cb465\r\n     *  bytes4(keccak256('isApprovedForAll(address, address)')) == 0xe985e9c5\r\n     *  bytes4(keccak256('transferFrom(address, address, uint256)')) == 0x23b872dd\r\n     *  bytes4(keccak256('safeTransferFrom(address, address, uint256)')) == 0x42842e0e\r\n     *  bytes4(keccak256('safeTransferFrom(address, address, uint256, bytes)')) == 0xb88d4fde\r\n     *  \r\n     *  => 0x70a08231 ^ 0x6352211e ^ 0x095ea7b3 ^ 0x081812fc ^\r\n     *     0xa22cb465 ^ 0xe985e9c5 ^ 0x23b872dd ^ 0x42842e0e ^ 0xb88d4fde == 0x80ac58cd\r\n     */\r\n    bytes4 private constant _INTERFACE_ID_ERC721 = 0x80ac58cd;\r\n\r\n    /**\r\n     *  bytes4(keccak256('supportsInterface(bytes4)'));\r\n    */\r\n    bytes4 private constant _INTERFACE_ID_ERC165 = 0x01ffc9a7;\r\n    \r\n  struct Order{\r\n      uint256 id;\r\n      uint64 cost;\r\n      string productName;\r\n      string description;\r\n      uint64 leadTime_in_days;\r\n    }\r\n    Order[] private orderVolume;\r\n    \r\n   \r\n   \r\n    mapping(address => uint256) private balances;\r\n    mapping(address => uint256) private OrderIncites;\r\n    mapping(uint256 => address) private orderIdMapping;\r\n    mapping(uint256 => address) private orderIndexToApproved;\r\n    mapping(address => mapping(address => bool)) private _operatorApprovals;\r\n   event OrderMade(address owner,\r\n     uint256 OrderVolumeId,\r\n      uint256 cost,\r\n      string productName,\r\n      string description,\r\n      uint256 leadTime_in_days\r\n    );\r\n    function _createOrder(uint256 _ID,\r\n        uint64 _cost,\r\n        string memory _productName,\r\n        string memory _description,\r\n        uint64 _leadTime_in_days,\r\n        address _owner\r\n       ) external returns (uint256) {\r\n           \r\n         Order memory _order = Order({\r\n             id:_ID,\r\n             cost: uint32(_cost),\r\n             productName: string(_productName),\r\n             description: string (_description),\r\n             leadTime_in_days: uint32(_leadTime_in_days)\r\n             });\r\n             \r\n          orderVolume.push(_order);\r\n          uint256 newOrderVolumeId=orderVolume.length - 1;\r\n          emit OrderMade(_owner, newOrderVolumeId, _cost, _productName, _description, _leadTime_in_days);\r\n          _transfer(address(0), _owner, newOrderVolumeId);\r\n          orderId++;\r\n          return newOrderVolumeId;  \r\n\r\n    }\r\n  \r\n    function getOrder(uint256 _id) external view returns(\r\n        uint256 id,\r\n        uint256 cost,\r\n        string memory productName,\r\n        string memory description,\r\n        uint256 leadTime_in_days\r\n    ) {\r\n        return (\r\n            orderVolume[_id].id,\r\n            orderVolume[_id].cost,\r\n            orderVolume[_id].productName,\r\n            orderVolume[_id].description,\r\n            orderVolume[_id].leadTime_in_days\r\n        );\r\n    } \r\n    function getOrderId() public view returns (uint256) {\r\n        uint256 newOrderVolumeId=orderVolume.length - 1;\r\n        return newOrderVolumeId;\r\n    }\r\n \r\n    function totalSupply() external view override returns (uint256 total){\r\n        return orderVolume.length;\r\n    }\r\n \r\n    function balanceOf(address owner) external view override returns (uint256 balance){\r\n        return OrderIncites[owner];\r\n    }\r\n    function ownerOf(uint256 tokenId) public view returns (address owner){\r\n        return orderIdMapping[tokenId];\r\n        \r\n    }\r\n \r\n\r\n    \r\n    function transfer( address to, uint256 tokenId) external override{\r\n        require(address(to) != address(0));\r\n        require(to != address(this));\r\n        require(_owns(msg.sender, tokenId));\r\n        _transfer(msg.sender,to,tokenId);\r\n    }\r\n    function _transfer(address _from, address _to, uint256 _tokenId) internal {\r\n        balances[_to]++;\r\n        _to=orderIdMapping[_tokenId];\r\n        if(_from != address(0)) {\r\n            balances[_from]--;\r\n            delete orderIndexToApproved[_tokenId];\r\n        }\r\n        emit Transfer(_from, _to, _tokenId);\r\n\r\n    }\r\n    function _owns(address _claimant, uint256 _tokenId) internal view returns(bool){\r\n        return orderIdMapping[_tokenId] == _claimant;\r\n    }\r\n     function approve(address _approved, uint256 _tokenId)public override payable {\r\n        require(_approved != address(0));\r\n        require(_owns(msg.sender, _tokenId));\r\n        _approve(_approved, _tokenId);\r\n        emit Approval(orderIdMapping[_tokenId], _approved, _tokenId);\r\n    }\r\n    \r\n     function setApprovalForAll(address operator, bool _approved) external override{ \r\n        require(operator != address(0));\r\n        require(operator != msg.sender);\r\n        _setApprovalForAll(operator, _approved);\r\n        emit ApprovalForAll(msg.sender, operator, _approved);\r\n    }\r\n\r\n    function _setApprovalForAll(address _operator, bool _approved) internal{\r\n        _operatorApprovals[msg.sender][_operator] = _approved;\r\n    }\r\n\r\n    function getApproved(uint256 _tokenId) external view override returns (address){\r\n        require(_tokenId < orderVolume.length);//check that the token exists\r\n        return orderIndexToApproved[_tokenId];\r\n    }\r\n\r\n    function isApprovedForAll(address _owner, address _operator) external override view returns (bool){\r\n        //returns the mapping status for these inputs\r\n        return _operatorApprovals[_owner][_operator];\r\n    } \r\n    function _checkERC721Support(address _from, address _to, uint256 _tokenId, bytes memory _data) internal returns (bool) {\r\n        if (!_isContract(_to)) {\r\n            return true;\r\n        }\r\n\r\n        // Call onERC721Received in the _to contract\r\n        bytes4 returnData = IERC721Receiver(_to).onERC721Received(msg.sender, _from, _tokenId, _data);\r\n        return returnData == MAGIC_ERC721_RECEIVED;\r\n    }\r\n     function _isContract(address _to) internal view returns (bool) {\r\n        uint32 size;\r\n        assembly {\r\n            size := extcodesize(_to)\r\n        }\r\n        return size > 0;\r\n    }\r\n    \r\n    \r\n    function safeTransferFrom(address _from, address  _to, uint256 _tokenId, bytes memory data) public override payable {\r\n        require(_isApprovedOrOwner(msg.sender, _from, _to, _tokenId));\r\n        _safeTransfer(_from, _to, _tokenId, data);\r\n\r\n    }\r\n     function transferFrom(address _from, address _to, uint256 _tokenId) external override payable{\r\n        require(_to != address(0));\r\n        address owner = orderIdMapping[_tokenId];\r\n        require(_to != owner); // not sending to the owner\r\n        require(msg.sender == _from || approvedFor(msg.sender, _tokenId) || this.isApprovedForAll(owner, msg.sender)); // currenct address is the owner of the token\r\n        require(_owns(_from, _tokenId), \"From is not the owner of the token\");\r\n        require(_tokenId < orderVolume.length, \"Token ID is not valid\");\r\n\r\n        _transfer(_from, _to, _tokenId);\r\n    }\r\n    \r\n    function _safeTransfer(address from, address to, uint256 tokenId, bytes memory _data) internal {\r\n        _transfer(from, to, tokenId);\r\n        require(_checkERC721Support(from, to, tokenId, _data));\r\n    }\r\n    function safeTransferFrom(address _from, address _to, uint256 _tokenId) external override payable {\r\n        safeTransferFrom(_from, _to, _tokenId,\"\");\r\n\r\n    }\r\n\r\n    function _approve(address _approved, uint256 _tokenId) private {\r\n        orderIndexToApproved[_tokenId] = _approved;\r\n    }\r\n    function approvedFor(address claimant, uint256 tokenId) internal view returns(bool){\r\n        return orderIndexToApproved[tokenId] == claimant;\r\n    }\r\n\r\n    function _isApprovedOrOwner(address spender, address _from, address _to, uint256 _tokenId) private view returns(bool) {\r\n        require(_tokenId < orderVolume.length);\r\n        require(_to != address(0));\r\n        address owner = orderIdMapping[_tokenId];\r\n        require(_to != owner);\r\n        require(_owns(_from, _tokenId));\r\n        //Error at approve(spender, _tokenId)\r\n        return (spender == _from || approvedFor(spender, _tokenId) || this.isApprovedForAll(owner, spender) );\r\n    }\r\n  \r\n   \r\n    \r\n }    \r\n\r\n\r\n \r\n   \r\n",
  "sourcePath": "C:/Users/samue/SupplyChainProtocol/contracts/SCP.sol",
  "compiler": {
    "name": "solc",
    "version": "0.8.7+commit.e28d00a7.Emscripten.clang"
  },
  "schemaVersion": "3.3.4",
  "updatedAt": "2021-08-28T03:36:10.600Z",
  "networkType": "ethereum",
  "devdoc": {
    "kind": "dev",
    "methods": {
      "getApproved(uint256)": {
        "details": "Throws if `_tokenId` is not a valid NFT.",
        "params": {
          "_tokenId": "The NFT to find the approved address for"
        },
        "returns": {
          "_0": "The approved address for this NFT, or the zero address if there is none"
        }
      },
      "isApprovedForAll(address,address)": {
        "params": {
          "_operator": "The address that acts on behalf of the owner",
          "_owner": "The address that owns the NFTs"
        },
        "returns": {
          "_0": "True if `_operator` is an approved operator for `_owner`, false otherwise"
        }
      },
      "safeTransferFrom(address,address,uint256)": {
        "details": "This works identically to the other function with an extra data parameter,  except this function just sets data to \"\".",
        "params": {
          "_from": "The current owner of the NFT",
          "_to": "The new owner",
          "_tokenId": "The NFT to transfer"
        }
      },
      "safeTransferFrom(address,address,uint256,bytes)": {
        "details": "Safely transfers `tokenId` token from `from` to `to`, checking first that contract recipients are aware of the ERC721 protocol to prevent tokens from being forever locked. Requirements: - `from` cannot be the zero address. - `to` cannot be the zero address. - `tokenId` token must exist and be owned by `from`. - If the caller is not `from`, it must be have been allowed to move this token by either {approve} or {setApprovalForAll}. - If `to` refers to a smart contract, it must implement {IERC721Receiver-onERC721Received}, which is called upon a safe transfer. Emits a {Transfer} event."
      }
    },
    "version": 1
  },
  "userdoc": {
    "kind": "user",
    "methods": {
      "getApproved(uint256)": {
        "notice": "Get the approved address for a single NFT"
      },
      "isApprovedForAll(address,address)": {
        "notice": "Query if an address is an authorized operator for another address"
      },
      "safeTransferFrom(address,address,uint256)": {
        "notice": "Transfers the ownership of an NFT from one address to another address"
      }
    },
    "version": 1
  }
}